:020000040000FA
:0600000077EF08F012008A
:020006001200E6
:06000800D7EF04F0120026
:02000E000100EF
:0C0010003C110000600000001100000026
:04001C000F9E08D05B
:100020000F9E07AE05D0066C071EE86A07220F8EEA
:1000300007C001F006C000F0136A126A8E0E026E4D
:10004000036A2EEF01F00F6A6AEC01F082EC01F016
:100050000FB612EF01F00FA205D00FBA12EF01F0A8
:1000600019EF01F00FBA25EF01F00FA005D00FB87E
:1000700012EF01F025EF01F00FB819EF01F0036A5C
:100080007F0E0824026EE86A03220D50025EE86AC1
:10009000035A1A0E106E086A126A136A006A016A1D
:1000A0000A50055E0B50065A0C50075A000E085AAB
:1000B00009E70A5005260B5006220C500722000EB5
:1000C000082201D0128AD89005360636073608363F
:1000D000D8901236133600360136102EE1D707506D
:1000E00006100510D8A4128A2EEF01F00F6A6AECF0
:1000F00001F082EC01F00FB612EF01F00FA205D073
:100100000FB812EF01F019EF01F00FAA05D00FB0F0
:1001100012EF01F019EF01F00FB002D00FA802D0DA
:1001200025EF01F0036A0D500824026EE86A0322ED
:100130007E0E025EE86A035A126A136A006A016A56
:100140000C500702F4CF01F0F3CF00F00B50070280
:10015000F3501326F4500022000E01220C50060228
:10016000F3501326F4500022000E01220A50070219
:10017000F3501226F4501322000E002201220B50DD
:100180000602F3501226F4501322000E0022012220
:100190000C500502F3501226F4501322000E0022D8
:1001A00001220A500602F4501226000E13220022E9
:1001B00001220B500502F4501226000E13220022D9
:1001C00001222EEF01F00F6A6AEC01F00FB6EDEF9D
:1001D00000F00FA20ED00FB405D07F0E076EFF0EF9
:1001E000066E1FD0800E076E066A1BD0076A066A6D
:1001F00018D00FB0FBD78F0E0860EDD77E0E0864C5
:10020000F5D78E0E085C05E0D89007320632082A32
:10021000F8D70FA406D0066C071EE86A072207AEBF
:10022000E5D712007F0E086EFF0E076E066E056E94
:1002300012007F0E0FBEFF0E086E02D07F0E086EFA
:10024000800E076E066A056AF3D70FAE04D0800EE3
:10025000086E076AF7D7086A076AF4D701500010DA
:1002600013101210F8E003BEF0D701BE0CD00250FC
:100270000310EBE0D8901236133600360136020632
:10028000D8A00306F2D70350D4E10228D2E012AE80
:1002900011D07F0E121402E113A00CD0132AE86AC9
:1002A0000022012207E3D880013200321332022AF1
:1002B0000228BFE00250C9E013C005F000C006F0FC
:1002C0000134076E0230086E0732089E0FBE088E9A
:1002D00018EF01F00736083602E30F840F7E06E1BF
:1002E0000F80086A076A066A056A1200082803E098
:1002F000D88007321200D890073202E10F82120034
:100300000F8612000C360D3602E30F8C0F7E06E1CD
:100310000F880D6A0C6A0B6A0A6A12000D2803E046
:10032000D8800C321200D8900C32EAE10F8A120009
:100330000D7E0F6A6AEC01F082EC01F00FB612EF4D
:1003400001F00FA20AD00FAA03D00FBE12EF01F0E6
:100350000FA41EEF01F01BEF01F00FAA05D00FACA8
:100360001EEF01F01BEF01F00FA00AD00FA808D07C
:100370000FBE04D00FA402D027EF01F02BEF01F045
:10038000126A036A0D50085C116E10E305C013F089
:1003900006C000F007C001F008C010F00AC005F068
:1003A0000BC006F00CC007F00F3A09D00AC013F0DA
:1003B0000BC000F00CC001F00DC010F0116C0F9ECE
:1003C0000FBC0F8E10C002F00FB05AEF01F01A0EE2
:1003D00011605AEF01F0026A086A0FA408D0056C98
:1003E000061E071E081EE86A0622072208220FAC16
:1003F00008D0136C001E011E021EE86A00220122B2
:100400000222046A115207E008340732063205322C
:100410000432112EF9D7055013260650002207503A
:1004200001220850022204C012F00F9E02AE0BD02F
:10043000126C131E001E011E021EE86A1322002207
:10044000012202220F8E02A006D0D8800132003293
:0E04500013321232102A10C002F02EEF01F00B
:02045E0012EC9E
:1004600007F00001010E681927E1695125E166C016
:10047000E6FF67C0E6FF7BD8E552E552F3CF6CF0AC
:10048000F4CF6DF00001640EF35C000EF45804E349
:10049000640EE66EE66A09D0640E6C5D000E6D595E
:1004A00007E26CC0E6FF6DC0E6FF15D8E552E552E5
:1004B0000001686B696B04D06851691101E1E9D8EA
:1004C0000001010E6E19CDE16F51CBE1F2D80001B0
:1004D0006E6B6F6BC6D7D9CFE6FFE1CFD9FF020EA7
:1004E000E126FD0EDBCF14F0FE0EDBCF15F0640E1F
:1004F000D8801456000E15560A0E1502F3CF15F0CB
:100500001402F3CF14F0F4501526F3CFDEFF15C01C
:10051000DDFFDECF14F0DDCF15F0010E14140F0156
:10052000E8B05D89E8A05D99DECF14F0DDCF15F06D
:10053000D89015321432010E1414E8B05D8BE8A087
:100540005D9BDECF14F0DDCF15F0D890153214325C
:10055000D8901532143214C05EFF020EE15C02E244
:10056000E16AE552E16EE552E7CFD9FF1200D9CF3B
:10057000E6FFE1CFD9FF060EE126DE6ADE6ADE6A1B
:10058000DD6ADD52DD52040EDB6A050EDB6AFD0E0C
:10059000DBCF06F0FE0EDBCF07F010EC00F005C05D
:1005A00014F006C015F007C016F008C017F0CD0E05
:1005B0000A6ECC0E0B6E4C0E0C6E3F0E0D6E76EC72
:1005C00000F005C0DEFF06C0DEFF07C0DEFF08C08A
:1005D000DDFFDD52DD52D9CFE9FFDACFEAFFEECF02
:1005E0001CF0EECF1DF0EECF1EF0EFCF1FF00A6A29
:1005F0000B6A680E0C6E420E0D6E1CC005F01DC01D
:1006000006F01EC007F01FC008F023EC00F005C084
:1006100018F006C019F007C01AF008C01BF005C09A
:10062000E6FF06C0E6FF07C0E6FF08C0E6FF8AEC6B
:1006300006F0E552E552E552E55204C014F005C05B
:1006400015F006C016F007C017F004C005F015C07D
:1006500006F016C007F017C008F0E3EC00F0040E37
:1006600006C0DBFF050E07C0DBFF040EDBCF14F076
:10067000050EDBCF15F014C0F3FF15C0F4FF060E16
:10068000E15C02E2E16AE552E16EE552E7CFD9FFB3
:1006900012008984070EE66E93EC08F0E552899407
:1006A000E66A57EC08F0E552E66A57EC08F0E552C6
:1006B0001200C750040B01E0010E146E1F0EC5148A
:1006C0001410F7E1C580C5B0FED7C750040B01E098
:1006D000010E146E1F0EC5141410F7E1B00EE66E75
:1006E000C3EC07F0E552C750040B01E0010E146E95
:1006F0001F0EC5141410F7E170C0E6FFC3EC07F03D
:10070000E552C750040B01E0010E146E1F0EC51414
:0C0710001410F7E1C584C5B4FED7120038
:04071C00D9CFE6FF4C
:10072000DACFE6FFE1CFD9FFE2CFDAFF130EE12403
:1007300002E3E168E652E16E0C0EDB6AD950FA0F73
:10074000E96EFF0EDA20EA6E080EEECFDBFF090E2F
:10075000EECFDBFF0A0EEECFDBFF0B0EEECFDBFFA3
:100760001FD9D950080F17D9EECFE6FFEECFE6FF1D
:10077000EECFE6FFEFCFE6FF6FEC05F0146E060E4E
:10078000E15C02E2E16AE552E16E1450DF6E020EB6
:10079000DF5C01E0BCD0050EDBCF16F0060EDBCF30
:1007A00017F0F80EDB50165C146EF90EDB5017587C
:1007B000156E7F0E145E000E155A0D0E14C0DBFF71
:1007C0000E0E15C0DBFF0D0E0E0EDBCF15F0000177
:1007D000800E15140AE0010EF36E0C0EF3CFDBFF52
:1007E000070EDB5001E098D09DD00D0EDBCF14F04A
:1007F0000E0EDBCF15F0D890155004E6170E145CE2
:10080000000E155801E39ED0186819687F0E1A6E05
:100810001B6A0D0EDB501F0B18C014F019C015F029
:100820001AC016F01BC017F007E0D8901732163226
:1008300015321432E806F9E10F0E14C0DBFF100E7A
:1008400015C0DBFF110E16C0DBFF120E17C0DBFF59
:100850000F0EDBCF14F0100EDBCF15F0110EDBCF37
:1008600016F0120EDBCF17F0D950010F94D8EE50CE
:100870001416EE501516EE501616EE5017161450AC
:1008800015101610171002E1000E01D0010EE76ED0
:100890000C0EE7CFDBFFDB5055E0186A196A800EBB
:1008A0001A6E1B6A010E1C6E1D6A1E6A1F6AD950E1
:1008B0000F0F71D8EE501C26EE501D22EE501E2256
:1008C000EE501F221C50185C146E1D501958156EE6
:1008D0001E501A58166E1F501B58176ED950010F14
:1008E0005AD81450EE161550EE161650EE16175034
:1008F000EE16D950080FE66E000EDA20E66E50D8DC
:10090000FDEC05F0E552E552E552E5521BD0DF045F
:1009100019E1070EDB5006E0146A156A166A800EAC
:10092000176E04D0146A156A166A176A080E14C086
:10093000DBFF090E15C0DBFF0A0E16C0DBFF0B0E36
:1009400017C0DBFFF60EDBCFE9FFF70EDBCFEAFFC8
:100950000C0EDBCFEFFF080EDBCF14F0090EDBCF60
:1009600015F00A0EDBCF16F00B0EDBCF17F014C01C
:1009700004F015C005F016C006F017C007F0130EFE
:10098000E15C02E2E16AE552E16EE552E5CFDAFFB1
:10099000E7CFD9FF1200E96E000EDA20EA6E1200EE
:0E09A000D950010FE66E000EDA20E66E12004E
:0209AE00DACF9E
:1009B000E4FFE2CFDAFFE9CFE4FFEACFE4FFF6CFCE
:1009C000E4FFF7CFE4FFF5CFE4FFF3CFE4FFF4CF8C
:1009D000E4FFFACFE4FF00EE00F0140EE80403E3B6
:1009E000EECFE4FFFBD700EE14F00C0EE80403E3B7
:1009F000EECFE4FFFBD7E6529EA438D00001605151
:100A0000611112E10001626B636B000EE66EE66A33
:100A100022EC08F0E552E552BD90BD92BD84BD9632
:100A2000010E0001606F1FD0010E60191DE16151C0
:100A30001BE103EC08F0F3CF64F0F4CF65F00001A4
:100A40006251F35C0001666F00016351F4580001CC
:100A5000676F010E0001686F696BBD80BD92BD8438
:100A6000BD960001606B616B9E9415D0F0A009D01B
:100A70000001410E706F010E00016E6F6F6BF09000
:100A80000AD0F0A208D00001500E706F010E0001D4
:100A90006E6F6F6BF092E55200EE1FF00C0EE804E3
:100AA00003E3E5CFEDFFFBD700EE13F0140EE804EF
:100AB00003E3E5CFEDFFFBD7E5CFFAFFE5CFF4FF8A
:100AC000E5CFF3FFE5CFF5FFE5CFF7FFE5CFF6FF85
:0E0AD000E5CFEAFFE5CFE9FFE5CFDAFF110041
:020ADE00D9CF6E
:100AE000E6FFDACFE6FFE1CFD9FFE2CFDAFFE65249
:100AF000146815687F0E166E176AD950FA0FE96EE2
:100B0000FF0EDA20EA6EEE501416EE501516EE5077
:100B10001616EE5017166AD814C0EEFF15C0EEFF79
:100B200016C0EEFF17C0EEFFFD0EDB50800B02E09B
:100B3000010E01D0000EE66E59D8060EE926000E11
:100B4000EA22E552E750EF6EFC0EDBCF14F0FD0E0B
:100B5000DBCF15F0D89014361536FC0E14C0DBFF31
:100B6000FD0E15C0DBFFDB50E66E40D8040EE92613
:100B7000000EEA22E552E750EE6EED6AFD0EDB5004
:100B8000146E156AFF0E141818E1155016E12ED8D0
:100B9000EECF14F0EECF15F0EECF16F0EFCF17F04A
:100BA000145015101610171006E0210E00017B6F6F
:100BB0007C6B800E0BD0040E09D0FD0EDB5008E1DB
:100BC00015D8EE6AEE6AEE6AEE6A010EDF6E06D0A6
:100BD000020EDF6E0BD8EE52EE52EE8EDF50E55273
:100BE000E552E5CFDAFFE7CFD9FF1200F80EDBCFF1
:0A0BF000E9FFF90EDBCFEAFF120067
:060BFA00D9CFE6FFDACFBF
:100C0000E6FFE1CFD9FFE2CFDAFF5BD8153411E27E
:100C10001450FE08000E15540CE276D805E06CD88E
:100C2000800EEE6EEE6847D067D8800EEE6E7F0EB7
:100C30000ED047D8D890155004E6010E145C000E73
:100C400015580BE261D805E057D8EE6A800EEE6EBB
:100C500032D052D8EE6AEE6A2ED047D8EECF14F0DA
:100C6000EECF15F0EECF16F0EFCF17F032D814C05C
:100C7000EEFF15C0EEFF16C0EEFF17C0EEFF21D845
:100C80001450010B05E025D8020E3AD8EF8E04D09F
:100C900020D8020E35D8EF9E14D8D89015321432D1
:100CA00018D8030E2DD814C0EFFF1AD804E011D8BD
:100CB000030E26D8EF8EE552E5CFDAFFE7CFD9FF56
:100CC000120013D8040E1CD8EECF14F0EFCF15F09D
:100CD0001200FA0EDBCFE9FFFB0EDBCFEAFF1200BA
:100CE00004D8060E0DD8EF501200FC0EDBCFE9FF42
:100CF000FD0EDBCFEAFF1200ECDFEE6AEE6A1200B7
:100D0000E926000EEA221200220E00017B6F7C6BA6
:040D100070EF06F08A
:0C0D1400D9CFE6FFDACFE6FFE1CFD9FF30
:100D2000E2CFDAFF060EE12402E3E168E652E16E6B
:100D3000D950050FE66E000EDA20E66E000EE66E64
:100D4000E66AD950FA0FE96EFF0EDA20EA6EEECFAE
:100D5000E6FFEECFE6FFEECFE6FFEFCFE6FF8EEC4D
:100D600003F0146E080EE15C02E2E16AE552E16E06
:100D70001450010E04C0DBFF020E05C0DBFF030EA2
:100D800006C0DBFF040E07C0DBFF050EDB502AE0C8
:100D9000040EDB50800B26E1146A156A800E166E75
:100DA0003F0E176ED950010FE96E000EDA20EA6E81
:100DB000EECF05F0EECF06F0EECF07F0EFCF08F064
:100DC00014C00AF015C00BF016C00CF017C00DF0DF
:100DD00099EC01F008C0EDFF07C0EDFF06C0EDFF84
:100DE00005C0EFFF010EDBCF14F0020EDBCF15F0D4
:100DF000030EDBCF16F0040EDBCF17F014C004F0A7
:100E000015C005F016C006F017C007F0060EE15C2D
:100E100002E2E16AE552E16EE552E5CFDAFFE7CFA3
:040E2000D9FF1200E4
:0C0E240010D823D813D826D82FD830D8E7
:100E30004FD854D83ED889949E6A010EE66E85EC50
:100E400008F0E5521200D09EF28EF28CF18E120064
:100E5000CD9CCD9ECD98CD8ACD96CD92CD80000EE5
:100E6000E66EE66A22EC08F0E552E5521200929432
:100E70000F0138958994120094840F013A95BD8032
:100E8000BD92BD84BD964991499312009D84120084
:100E90000F01399B938A499D499FF90EBB6E2C0E19
:100EA0005D6F3E0E5E6F040EBA6E5D8B5D99939A18
:100EB0001200C69A0F013A973A99800EE66E080E14
:100EC000E66E3EEC08F0E552E552310EC86E1200B7
:100ED0000F0139939382F18AF08612000F01399540
:080EE0009384F188F0881200F0
:080EE8000E0EF66E000EF76E0F
:100EF000000EF86E00010900F550766F0900F550FC
:100F0000776F03E1766701D03DD00900F550716F2E
:100F10000900F550726F0900F550736F0900090060
:100F2000F550E96E0900F550EA6E09000900090064
:100F3000F550746F0900F550756F09000900F6CF80
:100F400078F0F7CF79F0F8CF7AF071C0F6FF72C081
:100F5000F7FF73C0F8FF0001745302E1755307E017
:100F60000900F550EE6E7407F8E27507F9D778C0FE
:100F7000F6FF79C0F7FF7AC0F8FF00017607000E90
:060F8000775BBFD71200F1
:0A0F8600D9CFE6FFDACFE6FFE1CF96
:100F9000D9FFE2CFDAFFFD0EDB50C96EC6AE02D03C
:100FA000FF0E2BD00F0EC61408080FE00F0EC6144C
:100FB0000B080BE0C6889EA6FED7C750040B03E1C2
:100FC000C750010B17E0000E18D00F0EC61408080A
:100FD00004E00F0EC6140B0810E1C7B0FED7C750CF
:100FE000040B01E0010E146E1F0EC5141410F7E17E
:100FF000C5AC02D0FE0E01D0000EE552E5CFDAFFFF
:06100000E7CFD9FF12004A
:0A100600D9CFE6FFDACFE6FFE1CF15
:10101000D9FFE2CFDAFFE652E652CE50DF6E010E84
:10102000CFCFDBFFDECF14F0DDCF15F014C0F3FF20
:1010300015C0F4FFE552E552E552E5CFDAFFE7CF00
:04104000D9FF1200C2
:0C104400D9CFE6FFDACFE6FFE1CFD9FFFD
:10105000E2CFDAFFE652E652FC0EDBCFDEFFDBCF5B
:10106000DDFF010EDB50CF6EDF50CE6EE552E55254
:0C107000E552E5CFDAFFE7CFD9FF120010
:04107C00D9CFE6FFE3
:10108000DACFE6FFE1CFD9FFE2CFDAFF3F0EC71696
:10109000C66AC56AFD0EDB50C612FC0EDB50C712D5
:0E10A000C68AE552E5CFDAFFE7CFD9FF12008E
:0210AE00FF0E33
:1010B000E350206E480E01D04C0EE76EE72EFED7AF
:0E10C000E76AE72EFED7202EF7D700001200B9
:0210CE00000E12
:1010D000F36E00EE00F0060E01D81200EA6002D0B6
:0E10E000EE6AFCD7F350E9601200EE6AFCD70E
:0210EE0015EEFD
:1010F00000F025EE00F0F86A0F9C74EC07F003ECAA
:0A11000000F02FEC02F0FBD7120004
:06110A00FF0EE350206E11
:101110001B0E00D001D0200EE76EE72EFED7202E4A
:06112000FAD700D0120016
:0A112600FF0EE350E84E1200000037
:0C11300000D000D000D0E82EFAD712004A
:04113C0000000000AF
:0D11400000000000000000000000000000A2
:020000040030CA
:01000100847A
:010003003CC0
:010006008178
:00000001FF
