:020000040000FA
:0600000086EF0CF0120077
:020006001200E6
:06000800CDEF06F012002E
:02000E000200EE
:10001000491A0000FB010000020000005A1900000C
:0800200000010000EF000000E8
:08002800DAEC07F001012051A0
:10003000211113E06B0E1F5D0DE10A0EE66E4FEC11
:100040000CF0E552830EE66E010EE66E83EC0BF0CB
:10005000E552E5520101206B216B240E175D000E65
:10006000185911E3450EE66E010EE66E83EC0BF0B7
:10007000E552E5520A0EE66E4FEC0CF0E5521B0E0F
:100080000101176F186B010E141915E1155113E1D9
:10009000500E165D0DE1450EE66E010EE66E83EC28
:1000A0000BF0E552E5520A0EE66E4FEC0CF0E5520D
:1000B0000101146B156B0851091116E1410E165D13
:1000C00013E1176B186B000EE66EE66ACED9E552A7
:1000D000E552000EE66EE66A0EDAE552E552E3DA24
:1000E000010108510911FCE0085109119FE01D515F
:1000F0001E1101E0A1D006C1E6FF07C1E6FF41DA0B
:10010000E552E552F3CF0CF1F4CF0DF1600EE66E3F
:10011000000EE66EF3CFE6FFF4CFE6FFBEEC08F08C
:10012000E552E552E552E5520101C80ED8800C5562
:10013000000E0D5515E3600EE66E000EE66E83ECC4
:100140000BF0E552E552220EE66E010EE66E83ECF0
:100150000BF0E552E5520A0EE66E4FEC0CF0E5525C
:100160000101140ED8800C55000E0D5545E3270EE5
:10017000E66E010EE66E83EC0BF0E552E552600E82
:10018000E66E000EE66E83EC0BF0E552E552220EB1
:10019000E66E010EE66E83EC0BF0E552E5523D0E85
:1001A000E66E010EE66E83EC0BF0E552E5520A0EA8
:1001B000E66E4FEC0CF0E552950EE66E010EE66E23
:1001C00083EC0BF0E552E5520A0EE66E4FEC0CF0B4
:1001D000E552010E01011D6F1E6B126F136B640E51
:1001E000E66EE66AF6D8E552E5520101086B096B46
:1001F000E66A38EC0CF0E5520101086B096B640EFD
:100200000C5D000E0D5907E31251131104E1640E49
:10021000E66EE66A0ED0640E0C5D000E0D5901E329
:1002200005D71251131101E001D70CC1E6FF0DC132
:10023000E6FFCFD8E55259D0010E1D1958E11E51E5
:1002400056E106C1E6FF07C1E6FF9BD9E552E5523C
:10025000F3CF0EF1F4CF0FF1600EE66E000EE66EF6
:10026000F3CFE6FFF4CFE6FFBEEC08F0E552E5522F
:10027000E552E55201012C0ED8800E55010E0F55A6
:1002800004E26F0EE66E010E0BD0600EE66E000EFD
:10029000E66E83EC0BF0E552E552220EE66E010E9F
:1002A000E66E83EC0BF0E552E5520A0EE66E4FEC7B
:1002B0000CF0E552A70EE66E010EE66E83EC0BF035
:1002C000E552E5520A0EE66E4FEC0CF0E552020ED6
:1002D00001011D6F1E6B086B096BE66A38EC0CF0B0
:1002E000E552780EE66E38EC0CF0E5529FD6020E21
:1002F0001D1901E09BD61E5101E098D606C1E6FF0C
:1003000007C1E6FF3ED9E552E552F3CF10F1F4CF35
:1003100011F1600EE66E000EE66EF3CFE6FFF4CF4D
:10032000E6FFBEEC08F0E552E552E552E552010168
:100330002C0ED8801055010E115504E26F0EE66E9A
:10034000010E0BD0600EE66E000EE66E83EC0BF035
:10035000E552E552220EE66E010EE66E83EC0BF0DE
:10036000E552E5520A0EE66E4FEC0CF0E552010143
:100370001D6B1E6B086B096BE66A38EC0CF0E552DE
:1003800001010E51105D0F5111590AE2010EE66E86
:10039000E66A6BD8E552E552BA0EE66E010E09D058
:1003A000010EE66EE66AA7D8E552E552D40EE66E77
:1003B000010EE66E83EC0BF0E552E5520A0EE66E96
:1003C0004FEC0CF0E5520101126B136B530E166FDC
:1003D0002DD6D9CFE6FFE1CFD9FF020EE126FD0EE3
:1003E000DBCF14F0FE0EDBCF15F0640ED880145670
:1003F000000E15560A0E1502F3CF15F01402F3CFB6
:1004000014F0F4501526F3CFDEFF15C0DDFFDECF6C
:1004100014F0DDCF15F0010E14140F01E8B05D8962
:10042000E8A05D99DECF14F0DDCF15F0D89015323D
:100430001432010E1414E8B05D8BE8A05D9BDECF92
:1004400014F0DDCF15F0D89015321432D890153253
:10045000143214C05EFF020EE15C02E2E16AE55272
:10046000E16EE552E7CFD9FF1200D9CFE6FFE1CF29
:10047000D9FF020EE126D950FD0FE96EFF0EDA20FA
:10048000EA6E010EEE1807E1ED5005E1F40EDE6EA6
:10049000010EDD6E02D0DE6ADD6ADECF14F0DDCF44
:1004A00015F0010E14140F01E8B05789E8A0579910
:1004B000DECF14F0DDCF15F0D89015321432010ED6
:1004C0001414E8B0578BE8A0579BDECF14F0DDCFB3
:1004D00015F0D89015321432D8901532143214C059
:1004E00058FF020EE15C02E2E16AE552E16EE5527C
:1004F000E7CFD9FF1200D9CFE6FFE1CFD9FF020E37
:10050000E126D950FD0FE96EFF0EDA20EA6E010EEA
:10051000EE1807E1ED5005E1F40EDE6E010EDD6E22
:1005200002D0DE6ADD6ADECF14F0DDCF15F0010EF9
:1005300014140F01E8B05489E8A05499DECF14F0E8
:10054000DDCF15F0D89015321432010E1414E8B036
:10055000548BE8A0549BDECF14F0DDCF15F0D8907B
:1005600015321432D8901532143214C055FF020ED1
:10057000E15C02E2E16AE552E16EE552E7CFD9FFC4
:100580001200D9CFE6FFE1CFD9FF060EE126DE6AE1
:10059000DE6ADE6ADD6ADD52DD52040EDB6A050EBC
:1005A000DB6AFD0EDBCF06F0FE0EDBCF07F065EC5D
:1005B00003F005C014F006C015F007C016F008C01F
:1005C00017F0CD0E0A6ECC0E0B6E4C0E0C6E3F0E5D
:1005D0000D6ECBEC03F005C0DEFF06C0DEFF07C0EA
:1005E000DEFF08C0DDFFDD52DD52D9CFE9FFDACFF3
:1005F000EAFFEECF1CF0EECF1DF0EECF1EF0EFCFF6
:100600001FF00A6A0B6A680E0C6E420E0D6E1CC05B
:1006100005F01DC006F01EC007F01FC008F078EC02
:1006200003F005C018F006C019F007C01AF008C0A2
:100630001BF005C0E6FF06C0E6FF07C0E6FF08C0E6
:10064000E6FF73EC0AF0E552E552E552E55204C0CC
:1006500014F005C015F006C016F007C017F004C06E
:1006600005F015C006F016C007F017C008F038EC0A
:1006700004F0040E06C0DBFF050E07C0DBFF040E0E
:10068000DBCF14F0050EDBCF15F014C0F3FF15C05F
:10069000F4FF060EE15C02E2E16AE552E16EE5522A
:1006A000E7CFD9FF12008984070EE66EA2EC0CF0AA
:1006B000E5528994E66A66EC0CF0E552E66A66EC6F
:0606C0000CF0E5521200EF
:0A06C6000F9E08D00F9E07AE05D06E
:1006D000066C071EE86A07220F8E07C001F006C0ED
:1006E00000F0136A126A8E0E026E036A83EF04F042
:1006F0000F6ABFEC04F0D7EC04F00FB667EF04F01C
:100700000FA205D00FBA67EF04F06EEF04F00FBA36
:100710007AEF04F00FA005D00FB867EF04F07AEF7E
:1007200004F00FB86EEF04F0036A7F0E0824026E27
:10073000E86A03220D50025EE86A035A1A0E106E30
:10074000086A126A136A006A016A0A50055E0B5051
:10075000065A0C50075A000E085A09E70A50052697
:100760000B5006220C500722000E082201D0128ADC
:10077000D8900536063607360836D8901236133626
:1007800000360136102EE1D7075006100510D8A408
:10079000128A83EF04F00F6ABFEC04F0D7EC04F088
:1007A0000FB667EF04F00FA205D00FB867EF04F0A3
:1007B0006EEF04F00FAA05D00FB067EF04F06EEFF4
:1007C00004F00FB002D00FA802D07AEF04F0036A51
:1007D0000D500824026EE86A03227E0E025EE86A6B
:1007E000035A126A136A006A016A0C500702F4CFB6
:1007F00001F0F3CF00F00B500702F3501326F45032
:100800000022000E01220C500602F3501326F45071
:100810000022000E01220A500702F3501226F45063
:100820001322000E002201220B500602F350122662
:10083000F4501322000E002201220C500502F35046
:100840001226F4501322000E002201220A50060242
:10085000F4501226000E1322002201220B50050232
:10086000F4501226000E13220022012283EF04F01E
:100870000F6ABFEC04F00FB642EF04F00FA20ED0E7
:100880000FB405D07F0E076EFF0E066E1FD0800ED0
:10089000076E066A1BD0076A066A18D00FB0FBD72E
:1008A0008F0E0860EDD77E0E0864F5D78E0E085CBB
:1008B00005E0D89007320632082AF8D70FA406D0F0
:1008C000066C071EE86A072207AEE5D712007F0E06
:1008D000086EFF0E076E066E056E12007F0E0FBECD
:1008E000FF0E086E02D07F0E086E800E076E066A3D
:1008F000056AF3D70FAE04D0800E086E076AF7D7EB
:10090000086A076AF4D70150001013101210F8E0BB
:1009100003BEF0D701BE0CD002500310EBE0D8901C
:1009200012361336003601360206D8A00306F2D777
:100930000350D4E10228D2E012AE11D07F0E12147F
:1009400002E113A00CD0132AE86A0022012207E377
:10095000D880013200321332022A0228BFE002504E
:10096000C9E013C005F000C006F00134076E023084
:10097000086E0732089E0FBE088E6DEF04F0073632
:10098000083602E30F840F7E06E10F80086A076ACB
:10099000066A056A1200082803E0D88007321200B0
:1009A000D890073202E10F8212000F8612000C3637
:1009B0000D3602E30F8C0F7E06E10F880D6A0C6A7C
:1009C0000B6A0A6A12000D2803E0D8800C3212006C
:1009D000D8900C32EAE10F8A12000D7E0F6ABFEC4C
:1009E00004F0D7EC04F00FB667EF04F00FA20AD0C2
:1009F0000FAA03D00FBE67EF04F00FA473EF04F04B
:100A000070EF04F00FAA05D00FAC73EF04F070EF95
:100A100004F00FA00AD00FA808D00FBE04D00FA476
:100A200002D07CEF04F080EF04F0126A036A0D50EC
:100A3000085C116E10E305C013F006C000F007C09B
:100A400001F008C010F00AC005F00BC006F00CC0A1
:100A500007F00F3A09D00AC013F00BC000F00CC029
:100A600001F00DC010F0116C0F9E0FBC0F8E10C066
:100A700002F00FB0AFEF04F01A0E1160AFEF04F008
:100A8000026A086A0FA408D0056C061E071E081E1D
:100A9000E86A0622072208220FAC08D0136C001E59
:100AA000011E021EE86A002201220222046A11527B
:100AB00007E008340732063205320432112EF9D726
:100AC000055013260650002207500122085002222A
:100AD00004C012F00F9E02AE0BD0126C131E001E4B
:100AE000011E021EE86A13220022012202220F8E3A
:100AF00002A006D0D8800132003213321232102AFE
:080B000010C002F083EF04F0C5
:080B0800D9CFE6FFDACFE6FFCA
:100B1000E1CFD9FFE2CFDAFF130EE12402E3E1686F
:100B2000E652E16E0C0EDB6AD950FA0FE96EFF0E49
:100B3000DA20EA6E080EEECFDBFF090EEECFDBFF08
:100B40000A0EEECFDBFF0B0EEECFDBFF1FD9D95025
:100B5000080F17D9EECFE6FFEECFE6FFEECFE6FFA8
:100B6000EFCFE6FF58EC09F0146E060EE15C02E2EE
:100B7000E16AE552E16E1450DF6E020EDF5C01E0C7
:100B8000BCD0050EDBCF16F0060EDBCF17F0F80E4B
:100B9000DB50165C146EF90EDB501758156E7F0E85
:100BA000145E000E155A0D0E14C0DBFF0E0E15C09C
:100BB000DBFF0D0E0E0EDBCF15F00001800E1514BD
:100BC0000AE0010EF36E0C0EF3CFDBFF070EDB50D5
:100BD00001E098D09DD00D0EDBCF14F00E0EDBCFD0
:100BE00015F0D890155004E6170E145C000E155839
:100BF00001E39ED0186819687F0E1A6E1B6A0D0EED
:100C0000DB501F0B18C014F019C015F01AC016F0F5
:100C10001BC017F007E0D890173216321532143285
:100C2000E806F9E10F0E14C0DBFF100E15C0DBFF64
:100C3000110E16C0DBFF120E17C0DBFF0F0EDBCF4D
:100C400014F0100EDBCF15F0110EDBCF16F0120EE4
:100C5000DBCF17F0D950010F94D8EE501416EE5098
:100C60001516EE501616EE501716145015101610D5
:100C7000171002E1000E01D0010EE76E0C0EE7CF57
:100C8000DBFFDB5055E0186A196A800E1A6E1B6A8A
:100C9000010E1C6E1D6A1E6A1F6AD9500F0F71D893
:100CA000EE501C26EE501D22EE501E22EE501F224A
:100CB0001C50185C146E1D501958156E1E501A5891
:100CC000166E1F501B58176ED950010F5AD814506A
:100CD000EE161550EE161650EE161750EE16D950A9
:100CE000080FE66E000EDA20E66E50D8E6EC09F04A
:100CF000E552E552E552E5521BD0DF0419E1070E3B
:100D0000DB5006E0146A156A166A800E176E04D06E
:100D1000146A156A166A176A080E14C0DBFF090EFA
:100D200015C0DBFF0A0E16C0DBFF0B0E17C0DBFF82
:100D3000F60EDBCFE9FFF70EDBCFEAFF0C0EDBCFC1
:100D4000EFFF080EDBCF14F0090EDBCF15F00A0E13
:100D5000DBCF16F00B0EDBCF17F014C004F015C07C
:100D600005F016C006F017C007F0130EE15C02E2B2
:100D7000E16AE552E16EE552E5CFDAFFE7CFD9FF50
:100D80001200E96E000EDA20EA6E1200D950010F4F
:0A0D9000E66E000EDA20E66E120097
:060D9A00DACFE4FFE2CF16
:100DA000DAFFE9CFE4FFEACFE4FFF6CFE4FFF7CFC5
:100DB000E4FFF5CFE4FFF3CFE4FFF4CFE4FFFACF95
:100DC000E4FF00EE00F0140EE80403E3EECFE4FFCE
:100DD000FBD700EE14F00C0EE80403E3EECFE4FFC3
:100DE000FBD7E6529EA437D001010051011112E158
:100DF0000101026B036B000EE66EE66A03EC0CF079
:100E0000E552E552BD90BD92BD84BD96010E010133
:100E1000006F1FD0010E00191DE101511BE1C8EC4C
:100E20000BF0F3CF04F1F4CF05F101010251F35CB3
:100E30000101066F01010351F4580101076F010E12
:100E40000101086F096BBD80BD92BD84BD96010193
:100E5000006B016B9E94A1A050D001011B511C118D
:100E60001FE1898001011D511E1104E1060E686E0B
:100E7000D60E11D0010E1D1906E11E5104E10B0E14
:100E8000686EB80E08D0020E1D1906E11E5104E16D
:100E9000020E686EEE0E676E010E01011B6F23D00D
:100EA000010E1B6F1C6BE8501C1125E0899001019D
:100EB0001D511E1104E15A0E686ED20E11D0010EA2
:100EC0001D1906E11E5104E1550E686EF00E08D0A2
:100ED000020E1D1906E11E5104E15E0E686EBA0E87
:100EE000676E01011B6B1C6B000EE66EE66AE7EC99
:100EF0000BF0E552E552A19039D09EAA0ED0A9EC94
:100F00000BF001011F6FE66E4FEC0CF0E552010E85
:100F10000101206F216B9E9A29D0F2A406D0010115
:100F2000172B000E1823F29421D09EA61FD0C7A025
:100F30001BD0C7B40ED0C7BA03D0C9CFFEF114D0AE
:100F4000C7AA12D0C9CF16F1010E0101146F156B9B
:100F50000BD0C7A409D0C7BA03D0C9CFFEF102D0C5
:100F6000C7AA02D016C1C9FFC6889E96E55200EEF8
:100F70001FF00C0EE80403E3E5CFEDFFFBD700EE16
:100F800013F0140EE80403E3E5CFEDFFFBD7E5CF44
:100F9000FAFFE5CFF4FFE5CFF3FFE5CFF5FFE5CFAF
:100FA000F7FFE5CFF6FFE5CFEAFFE5CFE9FFE5CFB5
:040FB000DAFF110053
:0C0FB40019D827D88CD890D899D89AD892
:100FC000AAD8BAD816D81DD867D875D880D85FD80F
:100FD00029D85BD8C1D8D0D89E6AA16A010EE66E26
:100FE00094EC0CF0E5521200D09EF28EF28CF18E51
:100FF0001200D59CD59AD598D596D590D582D58412
:101000001200F28A1200CD9CCD9ECD98CD8ACD964D
:10101000CD92CD80000EE66EE66A03EC0CF0E55250
:10102000E5521200D9CFE6FFE1CFD9FFE6527C0EA0
:10103000DF6E4F0EAB16AC9ACF0E9D16FBC1E6FFCE
:10104000FCC1E6FFDFCFE6FF4AEC0BF0E552E552CC
:10105000E552AC84AC8AAC98AC9CAB8EAB88AB9CB4
:101060000F013A9D3A9F948C948EFBC1E6FFFCC120
:10107000E6FFDFCFE6FF4AEC0BF0E552E552E55222
:10108000E552E552E7CFD9FF12009D8A12009290F7
:101090000F01389189901200B19CB19EB198B18A2C
:1010A000B196B192B180000EE66EE66AE7EC0BF005
:1010B000E552E552120066906682669466860F01DC
:1010C00049874999610E686EA80E676E1200A0806C
:1010D000120092940F0138958994120094840F01A4
:1010E0003A95BD80BD92BD84BD9649914993120049
:1010F0009D8412000F01399B938A499D499FF90EE7
:10110000BB6E2C0E5D6F3E0E5E6F040EBA6E5D8B75
:101110005D99939A12000F013991938048914893F9
:10112000F90EBB6E2C0E576F3E0E586F040EBA6E42
:10113000578B57999390120092880F0148954897C2
:10114000F90EBB6E2C0E546F3E0E556F040EBA6E28
:10115000548B549992981200C69A0F013A973A9973
:10116000C590800EE66E060EE66E1FEC0CF0E552A2
:0C117000E552B00EC86E12009D86120001
:04117C00D9CFE6FFE2
:10118000DACFE6FFFA0EE3CFD9FFFB0EE3CFDAFFAB
:10119000FD0EE35209E72D0EDE6EFC0EE31EE32A80
:1011A000FD0ED8B4E306E31EE652E652E652FD0E0B
:1011B000E124E76EFF0EE220E46EE652F70EE3CF85
:1011C000E6FFF70EE3CFE6FF2EEC09F0F90EE1247F
:1011D000E96EFF0EE220EA6E1EEC09F00AE11BEC5C
:1011E00009F009E11EEC09F008E11BEC09F007E148
:1011F00008D029EC09F024EC09F029EC09F024ECE2
:1012000009F029EC09F0DE6AF90EE126FF0EE22270
:10121000FF0EE3CFDAFFE552FF0EE3CFD9FFE55231
:10122000FC0EE124E96EFF0EE220EA6EEECFF3FF42
:10123000EFCFF4FF1200EF380F0B1200EF500F0B3F
:1012400002E1EE52D8841200EF380F0B300FDE6E41
:101250001200EE500F0B300FDE6E1200FC0EE3CFCB
:10126000E9FFFD0EE3CFEAFF100EE66EEE6AEE6ACE
:10127000EF6AD890FD0EE336FE0EE336ED36ED361E
:10128000EF36FF0EE30609E04FEC09F0EE524FECAB
:1012900009F0EE524FEC09F0EDD7E56E1200030EA7
:1012A000EF24E8B6EF6E300EEF24E8BEEF6E000CD0
:1012B000D9CFE6FFDACFE6FFE1CFD9FFE2CFDAFF01
:1012C000E652146815687F0E166E176AD950FA0F29
:1012D000E96EFF0EDA20EA6EEE501416EE50151687
:1012E000EE501616EE5017166AD814C0EEFF15C051
:1012F000EEFF16C0EEFF17C0EEFFFD0EDB50800BB9
:1013000002E0010E01D0000EE66E59D8060EE92665
:10131000000EEA22E552E750EF6EFC0EDBCF14F030
:10132000FD0EDBCF15F0D89014361536FC0E14C028
:10133000DBFFFD0E15C0DBFFDB50E66E40D8040E70
:10134000E926000EEA22E552E750EE6EED6AFD0E48
:10135000DB50146E156AFF0E141818E1155016E1D3
:101360002ED8EECF14F0EECF15F0EECF16F0EFCF73
:1013700017F0145015101610171006E0210E010179
:10138000F96FFA6B800E0BD0040E09D0FD0EDB5006
:1013900008E115D8EE6AEE6AEE6AEE6A010EDF6EBB
:1013A00006D0020EDF6E0BD8EE52EE52EE8EDF50FC
:1013B000E552E552E5CFDAFFE7CFD9FF1200F80E8C
:0C13C000DBCFE9FFF90EDBCFEAFF1200E3
:0413CC00D9CFE6FF90
:1013D000DACFE6FFE1CFD9FFE2CFDAFF5BD81534F1
:1013E00011E21450FE08000E15540CE276D805E008
:1013F0006CD8800EEE6EEE6847D067D8800EEE6E29
:101400007F0E0ED047D8D890155004E6010E145C1C
:10141000000E15580BE261D805E057D8EE6A800E31
:10142000EE6E32D052D8EE6AEE6A2ED047D8EECFAA
:1014300014F0EECF15F0EECF16F0EFCF17F032D854
:1014400014C0EEFF15C0EEFF16C0EEFF17C0EEFF92
:1014500021D81450010B05E025D8020E3AD8EF8EA2
:1014600004D020D8020E35D8EF9E14D8D89015326B
:10147000143218D8030E2DD814C0EFFF1AD804E088
:1014800011D8030E26D8EF8EE552E5CFDAFFE7CF6D
:10149000D9FF120013D8040E1CD8EECF14F0EFCFF2
:1014A00015F01200FA0EDBCFE9FFFB0EDBCFEAFFEF
:1014B000120004D8060E0DD8EF501200FC0EDBCF40
:1014C000E9FFFD0EDBCFEAFF1200ECDFEE6AEE6A09
:1014D0001200E926000EEA221200220E0101F96F25
:0614E000FA6B59EF0AF05F
:0A14E600D9CFE6FFDACFE6FFE1CF31
:1014F000D9FFE2CFDAFF060EE12402E3E168E6520B
:10150000E16ED950050FE66E000EDA20E66E000E91
:10151000E66EE66AD950FA0FE96EFF0EDA20EA6E3F
:10152000EECFE6FFEECFE6FFEECFE6FFEFCFE6FF32
:1015300084EC05F0146E080EE15C02E2E16AE5520B
:10154000E16E1450010E04C0DBFF020E05C0DBFF8C
:10155000030E06C0DBFF040E07C0DBFF050EDB50E9
:101560002AE0040EDB50800B26E1146A156A800E17
:10157000166E3F0E176ED950010FE96E000EDA207D
:10158000EA6EEECF05F0EECF06F0EECF07F0EFCF2C
:1015900008F014C00AF015C00BF016C00CF017C00C
:1015A0000DF0EEEC04F008C0EDFF07C0EDFF06C043
:1015B000EDFF05C0EFFF010EDBCF14F0020EDBCF15
:1015C00015F0030EDBCF16F0040EDBCF17F014C0BE
:1015D00004F015C005F016C006F017C007F0060E9F
:1015E000E15C02E2E16AE552E16EE552E5CFDAFF45
:0615F000E7CFD9FF120055
:0A15F6000E0EF66E000EF76E000EEA
:10160000F86E01010900F550F46F0900F550F56F0F
:1016100003E1F46701D03DD00900F550EF6F0900F8
:10162000F550F06F0900F550F16F09000900F55011
:10163000E96E0900F550EA6E090009000900F5504D
:10164000F26F0900F550F36F09000900F6CFF6F1CB
:10165000F7CFF7F1F8CFF8F1EFC1F6FFF0C1F7FFE0
:10166000F1C1F8FF0101F25302E1F35307E0090071
:10167000F550EE6EF207F8E2F307F9D7F6C1F6FF80
:10168000F7C1F7FFF8C1F8FF0101F407000EF55BA1
:04169000BFD71200AE
:0C169400D9CFE6FFDACFE6FFE1CFD9FFA7
:1016A000E2CFDAFFAC6AAB6AFD0EDBB0AC88DBA23E
:1016B00002D0AC8CAB8CDBB4AC8EDBA602D0AB889A
:1016C00001D0AB8ADBB8AC84DBBAAB86DBAC02D032
:1016D0009D8A01D09D9ADBAE02D09D8801D09D9855
:1016E000FB0EDB50AF6EFC0EDBCF15F015C014F017
:1016F000156A1450B06EAC8AAB8EE552E5CFDAFFB6
:06170000E7CFD9FF120043
:0A170600D9CFE6FFDACFE6FFE1CF0E
:10171000D9FFE2CFDAFFACA2FED7FC0EDBCFE9FFA8
:10172000FD0EDBCFEAFFEF50E66E4FEC0CF0E5521A
:10173000FC0EDBCFE9FFDB2AFD0EDBCFEAFF01E386
:10174000DB2AEF50E8E1E552E5CFDAFFE7CFD9FF3A
:02175000120085
:0E175200D9CFE6FFDACFE6FFE1CFD9FFE2CF35
:10176000DAFFE652F20E0101FD17ABAC03D0FD919A
:10177000ABB0FD81ABB4FD85ABB2FD87AE50DF6E83
:10178000DF50E552E552E5CFDAFFE7CFD9FF12008F
:10179000D9CFE6FFDACFE6FFE1CFD9FFE2CFDAFF1C
:1017A000E652E652CE50DF6E010ECFCFDBFFDECF2A
:1017B00014F0DDCF15F014C0F3FF15C0F4FFE552AF
:0E17C000E552E552E5CFDAFFE7CFD9FF120080
:0217CE00D9CF71
:1017D000E6FFDACFE6FFE1CFD9FFE2CFDAFFE6524C
:1017E000E652FC0EDBCFDEFFDBCFDDFF010EDB5070
:1017F000B36EDF50B26EE552E552E552E5CFDAFF47
:06180000E7CFD9FF120042
:0A180600D9CFE6FFDACFE6FFE1CF0D
:10181000D9FFE2CFDAFFE652E652FC0EDBCFDEFF65
:10182000DBCFDDFF010EDB50CF6EDF50CE6EE55219
:0E183000E552E552E5CFDAFFE7CFD9FF12000F
:02183E00D9CF00
:10184000E6FFDACFE6FFE1CFD9FFE2CFDAFF3F0EC6
:10185000C716C66AC56AFD0EDB50C612FC0EDB5009
:10186000C712C68AE552E5CFDAFFE7CFD9FF1200EB
:10187000FF0EE350216EEF0E01D0F30EE76EE72E60
:101880003FEF0CF00C0E206EE76AE72E45EF0CF0F0
:0E189000202E44EF0CF0212E3DEF0CF0120044
:02189E00D9CFA0
:1018A000E6FFDACFE6FFE1CFD9FFE2CFDAFFACAC5B
:1018B00004D0AC900101FDB3AC80FD0EDB50AD6EE9
:0C18C000E552E5CFDAFFE7CFD9FF1200B8
:0418CC00FF0EE350D8
:1018D000216E480E01D04C0EE76EE72EFED7E76A68
:0C18E000E72EFED7212EF7D700001200E3
:0418EC00000EF36E89
:1018F00000EE00F0060E01D81200EA6002D0EE6A97
:0C190000FCD7F350E9601200EE6AFCD73F
:04190C0015EE00F0E4
:1019100025EE00F0F86A0F9CFBEC0AF003EC00F0F7
:0819200014EC00F0FBD71200EB
:08192800FF0EE350216E1B0EBF
:1019300000D001D0200EE76EE72EFED7212EFAD779
:0419400000D01200C1
:0C194400FF0EE350E84E1200000000D03F
:0A19500000D000D0E82EFAD71200F4
:06195A0000000000000087
:101960000000000000000000000000000000000077
:1019700041000000000000000067000020636D00CF
:10198000005761726E696E67212121204F62737466
:1019900061636C652000002061686561640000542B
:1019A00068652075736572206973206E6F7420728C
:1019B0006573706F6E64696E672E2E2E0A53656EA6
:1019C000642068656C70210000506C656E7479202D
:1019D0006F662073706163652E2E2E000048656C63
:1019E00070206F6E20746865207761792100005344
:1019F00063616E6E696E67206C6566742E2E2E00B4
:101A0000005363616E6E696E672072696768742E39
:101A10002E2E0000557365722073686F756C6420FC
:101A20007475726E206C6566742E2E2E00005573D0
:101A300065722073686F756C64207475726E2072A5
:091A4000696768742E2E2E000067
:021A49000A0091
:020000040030CA
:01000100847A
:010003003CC0
:010006008178
:00000001FF
